:020000040000FA
:020000000528D1
:040002000034003492
:020008001F28AF
:06000A00831603178801B4
:10001000890103138501870106148330810083124F
:1000200038308100B0308B003030A2000130A300A6
:10003000B001B101B201B301B401B5011E28A000A5
:10004000030EA1000B192B208B184120210E8300D9
:10005000A00E200E09000B11383081002308850006
:1000600022088400000850208700A20A0310A30D74
:1000700036302202031D08003030A2000130A300F8
:1000800008008B1030308400800A0A300002031D03
:1000900008008001840A36300402031D4428080049
:1000A0008207403479342434303419341234023421
:0600B0007834003418341E
:02400E00D73F9A
:02401000FF3F70
:00000001FF
