:020000040000FA
:020000000528D1
:040002000034003492
:02000800672867
:06000A00A001A1010A3073
:10001000A200A300A4010230A5008316031305105B
:100020008701880101308600831603178801890142
:1000300083160313811383160313151483120313FA
:1000400090308B0083160313013096008312031344
:1000500006142A2805142408512088002408542056
:1000600084000008462087005720A40A240825029F
:100070000319A4012A2882073F3406345B344F3425
:1000800066346D347D3407347F346F348207C03476
:10009000F934A434B034993492348234F83480344E
:1000A00090348207FE34FD348207203421340D3031
:1000B000A800FF30A700A70B5B28A80B5928080051
:1000C000A001A10A210823020319A1010800AA0026
:1000D000030EA9005720061C75288B1C7528A00A42
:1000E00020082202031960207528290E8300AA0E19
:0800F0002A0E8B100B10090011
:02400E00F12F90
:02401000FF3F70
:00000001FF
