:020000040000FA
:020000000528D1
:040002000034003492
:020008000929C4
:06000A003C30F4000A3056
:10001000F500E630F6007330F80083160313203045
:100020008500831603172030880089018316031387
:10003000860188018712051083160313D7308100CB
:100040007820692073205F20AA20831203139F1455
:100050008C01850186018801871605142F287708F1
:100060007802031995207208F90003307902031C05
:10007000B12819307902031CB92832307902031CE7
:10008000C1284B307902031CC92864307902031C53
:10009000D1287D307902031CD92896307902031CBF
:1000A000E128AF307902031CE928C8307902031C2B
:1000B000F128E1307902031CF92801292F280000DA
:1000C0008316031360308C0083120313E0308B001F
:1000D000080000008312031391309F00831603135E
:1000E00004309F0008000A30F300F30B7528080065
:1000F000000083160313193099008316031324306C
:1001000098008312031390309800831203130800A1
:10011000720883120313990083160313981C8E2808
:10012000080008172F2808132F28F701831203133C
:100130001F189B28A1281F109F10831203138712DA
:1001400008001F149F14831203138716080014302D
:10015000F5000800740881000800A720013085061A
:100160002329003083120313860008118811912877
:100170002F2801308312031386000811881191285B
:100180002F28033083120313860008118811912849
:100190002F28073083120313860008118811912835
:1001A0002F280F308312031386000811881191281D
:1001B0002F281F30831203138600081188119128FD
:1001C0002F283F30831203138600081188119128CD
:1001D0002F287F308312031386000811881191287D
:1001E0002F28FF30831203138600081188119128ED
:1001F0002F28FF30831203138600081588119128D9
:100200002F28FF30831203138600081588159328C2
:100210002F28F000030EF1000B1919290C1B1329CC
:100220008C1A1F2923290C131E08F20073209F1417
:1002300023290B11AA20F50B23298820AD288C1225
:100240001A08F7002329710E8300F00E700E0900C2
:02400E00F42F8D
:02401000FF3F70
:00000001FF
