:020000040000FA
:020000000528D1
:040002000034003492
:02000800372897
:06000A003F30A0000630AB
:10001000A1005B30A2004F30A3006630A4006D3019
:10002000A5007D30A6000730A7007F30A8006F3004
:10003000A9008312031390308B00831603139601DB
:1000400016148316031300308100831603138601F0
:10005000061483160317890183160313880183127C
:1000600003132030840034280008880036288B18B9
:100070003A204528840A000888000408293C03190E
:0E008000422008001F30840008008B10090089
:02400E00F43F7D
:02401000FF3F70
:00000001FF
