:020000040000FA
:020000000528D1
:040002000034003492
:02000800372897
:06000A003C30A1004C3067
:10001000A2000630A3008316031304308600831663
:100020000317890188018316031304309500831692
:1000300003130730810083160313043096008312E4
:100040000313A8308B002010061228202728272809
:100050002108810008004C30A20008000630A300EF
:100060000800A00906124C2820183C284C280B1820
:1000700031280B1934284C2828200030A202031DF7
:10008000422846280612A20B4C2846280616A30B27
:100090004C282B202E204C2806150B100B11090084
:02400E00F42F8D
:02401000FF3F70
:00000001FF
