:020000040000FA
:020000000528D1
:040002000034003492
:0200080050287E
:06000A000430C400C50033
:100010002030C600C8004030C70083160313F030FC
:10002000860083160317890183160313870183163D
:100030000313811383160313F03096008316031302
:10004000F03095008312031388308B00CB018601BA
:10005000870187092B282B288207F8349934F93433
:100060008E3480349234A434C03490348234B0342A
:10007000863488348334C634A1348207FE34FD3498
:10008000FB34F7344608C8000800CB004808840059
:100090004B088000C80A480847020319422008009C
:1000A000CD00030ECC000B1C7A2856280608F03928
:1000B000C000C100C00EC00C031C6428C20A420864
:1000C000440203197A285B2843083D208600410832
:1000D0000602F03903197228C30A430845020319BE
:1000E0007A2864280310C30D430D42072C20870093
:1000F00045207A28860106080B10C301C2014C0E68
:080100008300CD0E4D0E090035
:02400E00F42F8D
:02401000FF3F70
:00000001FF
