:020000040000FA
:020000000528D1
:040002000034003492
:020008003B2893
:06000A0000008316031341
:100010008801831603130130860083160313103002
:1000200083160317880183160317890183120313AC
:1000300090308B0083160313013096008312031354
:100040008801831203138501860103012728051EF9
:100050002A28272888092E202E202A280630A200A8
:10006000D930A100FF30A000A00B3428A10B32280A
:10007000A20B302808008B102E202E202E200900E5
:02400E00F43F7D
:02401000FF3F70
:00000001FF
