:020000040000FA
:020000000528D1
:040002000034003492
:020008002228AC
:06000A0000008316031341
:100010000630860083160317890183120313883084
:100020008B00831603138113831603139514151580
:1000300083160313063096008312031306308600DE
:10004000212821280B1826200B1009000608A000E3
:10005000A01C2D20201D3220080086153720861177
:100060000B1009008615442086110B10090033304F
:10007000A300FF30A200FF30A100A10B3D28A20B7E
:100080003B28A30B392808001A30A300FF30A20038
:10009000FF30A100A10B4A28A20B4828A30B462839
:0200A000080056
:02400E00F43F7D
:02401000FF3F70
:00000001FF
