:020000040000FA
:020000000528D1
:040002000034003492
:020008002828A6
:06000A0000008316031341
:10001000F0308600831603178901831603138801C5
:10002000831603137F30810083160313F03095008D
:100030008312031388308B0083160313F03096006D
:1000400083120313F03086008801A3012728272894
:100050000B182B284E28061E3428861E3728061F0C
:100060003A28861F3D284E2840204A204E2840200E
:100070004A204E2840204A204E2840204A204E2820
:1000800000008230A200FF30A100A10B4528A20B86
:1000900043280800A30A2308880008000B10090061
:02400E00F43F7D
:02401000FF3F70
:00000001FF
