:020000040000FA
:020000000528D1
:040002000034003492
:020008004E2880
:06000A003C30A20028308A
:10001000A3000230A4000230A500831603130430AD
:1000200086008316031789018801831603130430A1
:1000300095008316031307308100831603130430E1
:10004000960083120313A8308B0020102920282843
:100050002828220881000800A00906125A28201822
:1000600053285A28211C35285A28A50B5A283828E5
:10007000061E3B283F2806160230A5005A28061205
:100080000230A5005A282830A30008000230A4003E
:10009000080021104320462038205A280B182C280D
:1000A0000B192F285A28A30B322843202114A40B04
:0E00B0005A28492806150B100B1129200900AB
:02400E00F42F8D
:02401000FF3F70
:00000001FF
